:020000040800F2
:10000000E8220020A1010008A9010008AB010008B6
:10001000AD010008AF010008B101000800000000B8
:1000200000000000000000000000000009010008BE
:10003000B5010008000000004D01000881740008AF
:10004000BB010008BB010008BB010008F1720008F9
:10005000BB010008BB010008BB010008BB01000890
:10006000BB010008BB010008B9220008BB01000861
:10007000BB010008BB010008BB010008BB01000870
:10008000BB010008BB010008BB010008BB01000860
:10009000BB010008BB010008BB010008BF2200082B
:1000A00000000000BB010008BB010008BB01000804
:1000B000BB010008BB010008BB010008BB01000830
:1000C000BB010008BB010008BB010008BB01000820
:1000D000BB010008297F0008497F0008BB01000818
:1000E000B12200080D710008BB010008BB01000827
:1000F000BB010008DFF80CD000F0E4FA004800472C
:10010000D98C0008E8220020224B19680868B0E862
:10011000F00F80F30988BFF36F8F4FF0000080F37A
:1001200011884EF00D0E7047000000000648006870
:10013000006880F3088862B661B6BFF34F8FBFF3E3
:100140006F8F00DF00BF00BF08ED00E0EFF3098014
:10015000BFF36F8F0F4B1A6820E9F00F106008B5DE
:100160004FF0500080F31188BFF34F8FBFF36F8FB4
:1001700009F0B0FD4FF0000080F31188BDE80840A1
:1001800019680868B0E8F00F80F30988BFF36F8F33
:10019000704700BF64020020EFF305807047000045
:1001A0000648804706480047FEE7FEE7FEE7FEE711
:1001B000FEE7FEE7FEE7FEE7FEE7FEE7257500083F
:1001C000F50000082DE9F05F0546002092469B46A9
:1001D00088460646814640241BE02846414647465D
:1001E000224600F07DF953465A46C01A914110D379
:1001F00011461846224600F064F92D1A67EB0108F3
:100200004F4622460120002100F05BF917EB000960
:100210004E41201EA4F10104DFDC484631462A4647
:100220004346BDE8F09F000038B5D0E90221491EE1
:1002300001EB410102EBC1014268C1EB011102EB8C
:1002400081010268C1EB011102EB8102D0E90431A6
:1002500001EB410103EB81013023A1F5527191FBC8
:10026000F3F4174D6C4302EBC41291FBF3F403FB60
:10027000141100921A2902DB124B1A4400920C222C
:1002800091FBF2F3104C6343009C04EBC313009307
:1002900091FBF2F302FB13110C4A08E0491E40F2F5
:1002A000A324535C6343009C04EBC3130093002915
:1002B000F4DC0146684600F029F9009838BD0000DA
:1002C0003F0C0F008051010067C2030045AA0008DF
:1002D00040EA01039B0703D009E008C9121F08C0C8
:1002E000042AFAD203E011F8013B00F8013B521E48
:1002F000F9D27047D2B201E000F8012B491EFBD2BF
:1003000070470022F6E710B513460A460446194620
:10031000FFF7F0FF204610BD30B505462A460B46D4
:1003200012F8010B13F8014B08B1A042F8D01CB130
:10033000002802D06D1CF1E7284630BD421C10F8A1
:10034000011B0029FBD1801A704770B5064607F0E3
:10035000E1FF046805460A220021304600F01CF93E
:100360002C6070BD2DE9FE4F81EA030404F00044C7
:1003700021F0004100944FF0000B23F0004350EABD
:1003800001045ED052EA03045BD0C3F30A54C1F304
:100390000A552C44A4F2F3340194A0FB0254C1F397
:1003A000130141F48011C3F3130343F4801301FBE1
:1003B000024400FB034E840A970A44EA815447EA48
:1003C0008357A4FB076802958D0A05FB07854FEA52
:1003D000932C04FB0C542705029D4FEA065847EA6C
:1003E0001637B5EB08056EEB070C870E920E47EA41
:1003F000811742EA8312A7FB0201B6EB0B0164EB03
:1004000000042B0D43EA0C335E1844EB1C50DA4613
:100410005146E7FB0201C5F313044FEA0B3343EAED
:1004200014534FEA0432019C43EA0603A4F10C047E
:100430000294009CCDE900B400F0F5F803B0BDE8EB
:10044000F08F00200146F9E770B521F00043034327
:100450000CD0C1F30A550024D5EB040564EB04036A
:10046000D617AD1AB34102DB0020014670BD20183B
:1004700041EB025170BD0EB540F2334102910021B3
:10048000CDE900110A460B4600F0CDF803B000BDDF
:10049000C1F30A5210B5C1F3130140F2FF3341F426
:1004A00080119A4201DA002010BD40F233439A4293
:1004B000A2F2334203DC524200F012F810BD904029
:1004C00010BD202A04DB203A00FA02F10020704718
:1004D0009140C2F1200320FA03F319439040704782
:1004E000202A04DB203A21FA02F00021704721FA89
:1004F00002F3D040C2F120029140084319467047F0
:10050000014900F003B80000BC1E002010B50068CF
:100510003C22B0FBF2F302FB1303B0FBF2F00B60E2
:10052000B0FBF2F302FB1303B0FBF2F018224B60B6
:10053000B0FBF2F302FB1303B0FBF2F0021D8B6081
:100540000723B2FBF3F403FB1422800040F2B553FF
:1005500000F66C308A61B0FBF3F2B0FBF3F403FBFE
:100560001400443280084A61C8613B2802D39207D4
:1005700000D0401C0022074C13460A61E25C824214
:1005800003D8801A5B1C0B61F8E7401CC860084662
:1005900010BD000051AA00082DE9F04791460F4612
:1005A00080460446002614F8015B2DB100F09CF84B
:1005B0000068405DC007F6D12B2D02D02D2D18D03C
:1005C000641E4A463946204600F092F827B1396841
:1005D000A14201D1C7F8008071054FF002040BD58C
:1005E0004042002803DD07F095FE0460A007BDE847
:1005F000F08746F48066E4E70028F8DA07F08AFE20
:1006000004606FF00040F2E710B5141E73F10004AF
:1006100008DA401C41F1000192185B411A4301D1F4
:1006200020F0010010BD2DE9F04D92469B4611B11E
:10063000B1FA81F202E0B0FA80F220329046FFF780
:1006400040FF04460F4640EA0A0041EA0B015346C8
:100650005A46084313D0114653EA010019D0C8F195
:1006600040025046FFF73CFF05460E4650465946AD
:100670004246FFF726FF084305D0012004E020464C
:100680003946BDE8F08D0020054346EAE0762C436C
:1006900037430A986305E40AA0EB08000022FD0A2C
:1006A00044EA47540A3002D500200146E9E7010533
:1006B00010196941DDE9084500196941BDE8F04DAF
:1006C000A2E70000064C074D06E0E06840F0010399
:1006D00094E8070098471034AC42F6D3FFF70EFDBC
:1006E00048AD000868AD000800487047E0AA00085F
:1006F0002DE9F05F82460078002715468B460AF107
:100700000104B946302801D09DB113E014F8010B63
:100710000127782803D0582801D045B10AE00DB14F
:10072000102D07D10027102514F8010B02E0082531
:1007300000E00A250026B0460EE005FB080005FB98
:1007400006F1012701EB10461FFA80F8B6F5803F4D
:1007500000D3B94614F8010B294600F018F8002818
:10076000EBDABBF1000F05D00FB1641E00E0544678
:10077000CBF80040B9F1000F06D007F0CBFD022105
:100780000160C81EBDE8F09F48EA0640FAE73A2833
:1007900000D2303820F02002412A01D3A2F13700E4
:1007A000884201D34FF0FF30704770B58C1810F8B5
:1007B000015B15F0070301D110F8013B2A1106D1A6
:1007C00010F8012B03E010F8016B01F8016B5B1EC0
:1007D000F9D12B0705D40023521E0DD401F8013B9B
:1007E000FAE710F8013BCB1A921C03E013F8015B07
:1007F00001F8015B521EF9D5A142D8D3002070BD8B
:10080000F8B500260446009600680168C943490609
:1008100029D5816841F001018160144814490068BC
:10082000B0FBF1F000EB400000E0401E009000281B
:10083000FBD103F00FF8054610E003F00BF8401B66
:1008400002280BD9E06C40F01000E064206D40F00D
:100850000100206584F848600120F8BD2068006828
:10086000C0434006E9D40020F8BD0000600200202B
:1008700040420F00F0B5002585B02E462F462A468F
:100880002D21A62007F094FF642002F04DFC0022E9
:100890002E21A62007F08CFF2B223121A62007F065
:1008A00087FF09222C21A62007F082FF28222D2174
:1008B000A62007F07DFF0024032304AA03A902A8B1
:1008C00000F076FABDF80800641C284405B2BDF8B3
:1008D0000C00E4B2304406B2BDF810000A2C3844D3
:1008E00007B2E9D30A2095FBF0F10BB296FBF0F1C9
:1008F00097FBF0F002B25842C31700EB93708010E0
:1009000009B246B24842C11700EB9170801044B260
:10091000C2F58070C11700EB9170801045B2F2B241
:100920001E21A62007F044FFE2B21F21A62007F0F7
:100930003FFFEAB22021A62007F03AFF142002F080
:10094000F3FB5C222F21A62007F032FF5C222E2130
:10095000A62007F02DFF3021A72007F025FF07482C
:100960000078022807D333463722054905A0CDE990
:10097000004507F09BFC05B0F0BD0000E002002040
:1009800059A900085B205741524E494E47205D5BF4
:100990002025732025303564205D5B204144584C70
:1009A0003334355F4175746F5F41646A75737420C9
:1009B00025642025642025643E205D0D0A0000008A
:1009C00002488168491C816070470000580100207E
:1009D000F8B5274D012849D0022847D0032845D033
:1009E000E878002843D03021A72007F0DDFEEB781F
:1009F0000446032B3BD01F4E200708D53078022831
:100A000005D3E3221C491DA0009407F04FFC6006AB
:100A10000CD5012001F0AAFB3078022806D30094FF
:100A2000EB78E722144923A007F040FCE0060CD540
:100A3000012001F09BFB3078022806D30094EB786C
:100A4000EB220D4929A007F031FC60070CD50120ED
:100A500001F08CFB3078022806D30094EB78EF226B
:100A6000054930A007F022FCE878401EE870F8BD88
:100A700024010020E00200207AA900085B205741F1
:100A8000524E494E47205D5B20257320253035644A
:100A9000205D5B204144584C33343520496E6163FE
:100AA000746976697479203D202564202578205D5D
:100AB0000D0A00005B205741524E494E47205D5BB6
:100AC0002025732025303564205D5B204144584C3F
:100AD0003334352053494E474C455F544150203DF7
:100AE000202564202578205D0D0A00005B205741F9
:100AF000524E494E47205D5B2025732025303564DA
:100B0000205D5B204144584C333435204163746987
:100B100076697479203D202564202578205D0D0AB2
:100B2000000000005B205741524E494E47205D5B5C
:100B30002025732025303564205D5B204144584CCE
:100B400033343520465245455F46414C4C203D20CC
:100B50002564202578205D0D0A00000038B50021AD
:100B6000A72007F021FE434CE52817D0142002F0FF
:100B7000DBFA0021A72007F017FE0346E5280DD079
:100B8000207920F002002071217829B100905A22AA
:100B900039493AA007F08AFB012038BD00222D21F7
:100BA000A62007F005FE642002F0BEFA00222E21E6
:100BB000A62007F0FDFD2B223121A62007F0F8FD2D
:100BC00009222C21A62007F0F3FD28222D21A620A2
:100BD00007F0EEFD8A223821A62007F0E9FD302239
:100BE0001D21A62007F0E4FD0F222121A62007F0F9
:100BF000DFFD07222A21A62007F0DAFD092228219D
:100C0000A62007F0D5FD14222921A62007F0D0FD4B
:100C10001A222421A62007F0CBFD06222521A6209A
:100C200007F0C6FD05222621A62007F0C1FDEE2211
:100C30002721A62007F0BCFD5C222F21A62007F06B
:100C4000B7FD5C222E21A62007F0B2FD3021A7209F
:100C500007F0AAFD0346207940F0020121712078B7
:100C6000032805D300915622034912A007F01EFB6A
:100C7000002038BDE00200206DA900085B2045522D
:100C8000524F52205D5B2025732025303564205D56
:100C90005B204144584C3334355F496E69742046BB
:100CA00061696C21203D202578202578205D0D0A82
:100CB000000000005B20494E464F205D5B202573FD
:100CC0002025303564205D5B204144584C33343559
:100CD0005F496E6974204F4B21203D2025782025E7
:100CE00078205D0D0A0000002DE9F74F8B46824603
:100CF0003221A72007F058FD07463321A72007F02F
:100D000053FD06463421A72007F04EFD0546352148
:100D1000A72007F049FD04463621A72007F044FD2F
:100D200080463721A72007F03FFD07EB06210FFA89
:100D300081F905EB04211D4C08EB00200FB206B22F
:100D40004946B4F9040005F0FFFD0325C82806D282
:100D5000B4F9041001EB490090FBF5F0A08039468E
:100D6000B4F9060005F0F0FDC82806D2B4F9060073
:100D700000EB470090FBF5F0E0803146B4F9080045
:100D800005F0E2FDC82806D2B4F9080000EB4600E1
:100D900090FBF5F02081A188AAF80010E188ABF85B
:100DA0000010029821890180BDE8FE8F24010020F7
:100DB0002DE9FE4306464FF00000308008805FEAD0
:100DC000030814460D4610802BD0002718E002AA15
:100DD00001A96846FFF788FF3088BDF80010084475
:100DE00030802888BDF80410084428802088BDF889
:100DF000081008442080142002F096F97F1CFFB2EE
:100E00004745E4D3B6F9001091FBF8F03080B5F90E
:100E1000001091FBF8F02880B4F9001091FBF8F075
:100E20002080BDE8FE8310B500F062F900F088F97B
:100E300000F0B4F9002803D0BDE8104000F0DAB8A3
:100E400010BD00002DE9FC41464DC821281D01F0D0
:100E5000A1F900287DD002F0FDFC434F00246E462E
:100E60004FF0FF086860321D6846B11CFFF73CFF79
:100E7000BDF900104FF47A704143404691FBF0F108
:100E8000ADF80010BDF902104FF47A72514391FB96
:100E9000F8F1ADF80210BDF90410514391FBF8F0E0
:100EA000ADF8040097F83700012802D16846FFF733
:100EB000BAFF97F83700022807D1BDF90420BDF921
:100EC0000210BDF9000006F0AFF8641C24B20A2C31
:100ED000C9DB244C254E343CE06A012816D0AB68AF
:100EE000032B2AD33078022805D340F2E11220499F
:100EF00020A007F0DBF9012001F038F90120E062C1
:100F000056F80A0FC01C3060A86013E0A868D6F835
:100F10000A10884211D0012001F028F9AB68C6F808
:100F20000A303078022805D34FF4EE7210491EA023
:100F300007F0BCF902F08EFC20630A4841F28831C8
:100F4000001F01F027F940B10020E06200F046F8F0
:100F500000E005E002F07EFC20630020FFF738FD92
:100F6000BDE8FC8158010020F6020020E0020020CC
:100F7000ADA900085B205741524E494E47205D5BAA
:100F80002025732025303564205D5B2073746570E7
:100F90005F636F756E7465725F7374617274203D08
:100FA000202564205D0D0A005B205741524E494EBA
:100FB00047205D5B2025732025303564205D5B2054
:100FC000737465705F636F756E7465725F72756E52
:100FD000203D202564205D0D0A00000010B5044C62
:100FE0000020A060207002F035FC606010BD0000A1
:100FF00058010020F8B500212D4D03264C1C94FB10
:10100000F6F006FB104000EB400005EBC000B0F925
:101010001E3001EB410005EBC000B0F91E209342E9
:1010200041DC891C91FBF6F306FB131101EB410136
:1010300005EBC101B1F91E10914234DCB0F9222058
:10104000B0F91C108A422EDBB0F924208A422ADA39
:10105000B0F91810B0F91A00081A1649898E88429A
:1010600021DD02F0F7FB124900901039684601F0CB
:1010700087F8009002F0EEFB0D4934394862009881
:10108000C838B0F52F6F0BD90B480078022806D36B
:101090004FF4B37209490AA0009B07F007F9F8BDA5
:1010A000A868401CA86021B20329A7DBF8BD000096
:1010B00058010020F6020020E00200208CA9000860
:1010C0005B205741524E494E47205D5B20257320DF
:1010D00025303564205D5B2074696D652077696E0D
:1010E000646F77203D256420205D0D0A000000001C
:1010F000F0B50022114C032502EB420104EBC101C3
:10110000B1F912608E82B1F910304B8230F9127051
:101110000F823B44334493FBF5F31BB2CB82B1F90E
:101120001860B34200DD0B83B1F91A60B34200DAF4
:101130004B83521C12B2032ADEDBF0BD58010020A3
:10114000F0B5134D687B411C697332281FD3002012
:10115000687301460F48104E90F83640774201EB15
:10116000410005EBC000491CB0F91820B0F91A3055
:1011700009B2A2EB030C1A4402EBD2725210A0F88F
:101180001EC082830484068347830329E7DBF0BD06
:1011900058010020F602002018FCFFFF70B5002067
:1011A0000D4D034603EB430105EBC101B1F92440AA
:1011B0004C84B1F91620A24201DB141B00E0A41AF2
:1011C000B1F92060B44201DB8A8401205B1C1BB2B0
:1011D000032BE7DB70BD0000580100202DE9F04132
:1011E0000E46074602EB82002849324601EB4004D6
:1011F0003846216804F0A2FFA0F57F41FF3943D0B3
:101200002068FFF79BF8627A85B2701B1146C01EFA
:10121000521E904201DB96B200E086B2785D3D2816
:1012200008D03F2829D0216819A007F03FF80120F5
:10123000BDE8F0812079012804D0022802D021687D
:1012400018A0F2E7D4F80500FFF75BF87919D4F895
:1012500005003246491CFFF73BF82079022807D1E8
:1012600005F0A6FE16A007F021F81B4901208870A2
:10127000D4F80520216819A003E0D4F805202168DE
:101280001BA007F013F8D2E70020D1E7840000206C
:101290000D0A25732C466F726D6174204572726F52
:1012A000720D0A000D0A25732C204E6F74205375A1
:1012B00070706F722057726974650D0A000000002B
:1012C0000D0A41542B5265737420415050205265D1
:1012D0007374200D0A000000E00200200D0A25733F
:1012E0003D25732C536574204F4B0D0A0000000000
:1012F0000D0A25733D25732C476574204F4B0D0A4D
:101300000000000070B50B46054602EB82003E4926
:101310001A4601EB40042846216804F00FFF4FF6FF
:10132000FF76B0426ED02068FFF708F881B2685CA3
:101330003D2807D03F2846D0216834A006F0B6FFEC
:10134000012070BD6818401CFEF7FFFF054620799C
:10135000012804D0022802D0216831A0EEE7607A8B
:1013600001280AD1FF2D00DDFF25D4F80500EAB2DF
:101370000270216831A006F099FF607A02280BD133
:10138000B5F5803F00DB3546D4F80500AAB20280EF
:1013900021682AA006F08AFF607A042807D1D4F8D1
:1013A00005002A460560216824A006F07FFF207909
:1013B0000228C5D105F0FCFD25A006F077FF2A49DB
:1013C00001208870BCE7607A012806D1D4F80500B6
:1013D0002168027825A006F069FF607A022806D10C
:1013E000D4F805002168028820A006F05FFF607A2B
:1013F0000428A5D1D4F80500216802681BA006F0D6
:1014000055FF9DE7002070BDB60000200D0A257332
:101410002C466F726D6174204572726F720D0A00F6
:101420000D0A25732C204E6F7420537570706F72E7
:101430002057726974650D0A000000000D0A2573BB
:101440003D25642C536574204F4B0D0A00000000AD
:101450000D0A41542B52657374204150502052653F
:101460007374200D0A000000E00200200D0A2573AD
:101470003D25642C476574204F4B0D0A0000000089
:101480002DE9F047374D82460126687888B08946B5
:101490004FF6FF7801281ED0334A34A1174668461C
:1014A00006F014FF4A466946504604F02BFE4446B7
:1014B000A04206D14A4631A1504604F023FEA04284
:1014C0004BD007F0DFFB6E703946314806F0EEFE78
:1014D00008B0BDE8F08705270024E2B2494650462F
:1014E000FFF77CFE0028F3D1641CA4B2BC42F4D305
:1014F0000A270024E2B249465046FFF703FF0028BE
:10150000E6D1641CA4B2BC42F4D34A4621A15046A1
:1015100004F0F8FD4446A04207D021A006F0C6FE24
:10152000C5F80E6000206870D2E74A4623A15046F5
:1015300004F0E8FDA04204D022A006F0B7FEAE7091
:10154000C6E74A4625A1504604F0DCFDA042BFD0C4
:1015500025A006F0ABFEEE70BAE729A006F0A6FEC5
:10156000B6E70000E00200201E03002041542B4398
:10157000666753746172743D2573000041542B43B8
:10158000666753746172743D484F50454E000000C9
:101590000CAC000841542B43666753746F70000015
:1015A0000D0A41542B43666753746F7020415050AD
:1015B0002052756E6E696E670D0A000041542B5201
:1015C000657374000D0A41542B52657374204150A9
:1015D000502052657374200D0A00000041542B53B3
:1015E0006C656570000000000D0A41542B536C655A
:1015F00065702041505020536C656570200D0A00C5
:101600000D0A41542B436667537461727420205055
:10161000617373776F7264204572726F720D0A0086
:1016200010B502790421931C05E04418491CA478E4
:1016300089B2224492B29942F7D3D0B210BD0021B0
:101640000A464318491C9B7889B21A4492B20A2967
:10165000F7D3D0B27047000070B504468079A02857
:1016600018D12C48002204EB42010389B1F807107D
:1016700049BA8B4200D2018143898B4200D9418112
:10168000521C92B2192AEED3C16801F00F0141F049
:101690001001C160A079204DA1280BD1287940F01C
:1016A000100028712878032804D37B221B491CA032
:1016B00006F0FCFDA079A2280BD1287940F010009B
:1016C00028712878032804D37F2214491EA006F02D
:1016D000EDFDA079A3280BD1287940F010002871E6
:1016E0002878032804D383220C4920A006F0DEFDCD
:1016F000A079A9280DD1287940F010002871287808
:10170000032806D3BDE870408722044921A006F0D3
:10171000CDBD70BD2F030020E002002022A90008EB
:101720005B20494E464F205D5B20257320253035D8
:1017300064205D5B20484B4A5F3135432073746FF2
:1017400070205D0D0A0000005B20494E464F205D71
:101750005B2025732025303564205D5B20484B4A93
:101760005F313543206964205D0D0A005B20494EDE
:10177000464F205D5B2025732025303564205D5B5E
:1017800020484B4A5F3135432064617465205D0D0C
:101790000A0000005B20494E464F205D5B20257308
:1017A0002025303564205D5B20484B4A5F3135434E
:1017B00020636667205D0D0A000000002DE9FC47EC
:1017C0000446C078DFF84891524D534F09F11A068C
:1017D000512855D16168C9F826102189A9F82A1025
:1017E000B6F90C30B6F90E2003FB03F002FB020041
:1017F000B6F91010D5F800C001FB0100844503D2F2
:101800002860EB842A856985D5F804C0844503D90E
:101810002860AB85EA8529867878DFF8008140F07A
:10182000010078704FF47A704343D81703EB50509F
:10183000C012ADF800004FF47A704243D01702EBAB
:101840005050C012ADF802004FF47A704143C817EF
:1018500001EB5050C012ADF8040098F8370003288F
:1018600002D16846FFF7DFFA98F83700042807D15D
:10187000BDF90420BDF90210BDF9000005F0D4FB4C
:10188000E078532827D16168C9F81A102189A9F88E
:101890001E10286990B36869B6F9001000EB410189
:1018A000032091FBF0F16961A969B6F9022001EB0F
:1018B000420191FBF0F1A961E969B6F9042001EB5D
:1018C000420191FBF0F0E8612869401C28617878BA
:1018D00040F004007870787800F00F0005280BD1F4
:1018E0000F48017941F008010171E86800F0F0004B
:1018F000401DE86000207870BDE8FC87FFE7B6F97E
:1019000000006861B6F90200A861B6F90400DAE7E0
:101910000F0400202F0300201C010020F6020020ED
:10192000E00200201CB508A2D2E90032CDE9003265
:101930008DF803008DF805104FF6FF7306226946F7
:10194000034804F0E0F81CBDFFC60400A900000035
:10195000800C00201CB507A14FF6FF73D1E90021D0
:10196000CDE900218DF8030005226946034804F003
:10197000CAF81CBDFFC60300A3000000800C0020B5
:101980001CB507A14FF6FF73D1E90021CDE9002175
:101990008DF8030005226946034804F0B4F81CBD25
:1019A000FFC60300A2000000800C002010B51B4CF5
:1019B000207920F0100323712078032804D32D22EE
:1019C000174918A006F072FC07F069F9322001F0FF
:1019D000ABFBA520FFF7D4FF0A2001F0A5FBA62052
:1019E000FFF7B8FF0A2001F09FFB0421B120FFF7A9
:1019F00099FF052001F098FBA32000F049F805208D
:101A000001F092FB2078032807D32379BDE810402A
:101A10003822034911A006F049BC10BDE0020020A5
:101A2000EEA800085B20494E464F205D5B202573E1
:101A30002025303564205D5B204253505F484B4A7F
:101A40005F3135435F496E6974205374617274214C
:101A50003D202578205D0D0A000000005B20494EE6
:101A6000464F205D5B2025732025303564205D5B6B
:101A7000204253505F484B4A5F3135435F496E699E
:101A800074204F4B21203D202578205D0D0A000059
:101A90001CB507A14FF6FF73D1E90021CDE9002164
:101AA0008DF8030005226946034804F02CF81CBD9C
:101AB000FFC60300A0000000800C002070B50E4699
:101AC0000546012901D0032E1DD1124800780328B4
:101AD00019D34022104911A006F0E8FB2888C0F372
:101AE0000D0113A006F0E2FB002404E0295D13A021
:101AF00006F0DCFB641C2888C0F30D00A042F5DC76
:101B000010A006F0D3FB022E01D0032E01D100203D
:101B1000288070BDE0020020FFA800085B20494E2D
:101B2000464F205D5B2025732025303564205D0005
:101B30005B2025303264205D5B2000002530327848
:101B4000200000005D0D0A0010B50F4C207920F038
:101B5000080323712078032804D329220B490CA001
:101B600006F0A4FB07F074F8642001F0DDFA207899
:101B7000032807D32379BDE810403422034911A07C
:101B800006F094BB10BD0000E002002037A9000859
:101B90005B20494E464F205D5B2025732025303564
:101BA00064205D5B204253505F4A595F3930315F9A
:101BB000496E6974205374617274213D2025782028
:101BC0005D0D0A005B20494E464F205D5B2025736A
:101BD0002025303564205D5B204253505F4A595FB9
:101BE0003930315F496E6974204F4B21203D2025EB
:101BF00078205D0D0A00000070B50E4605460129EB
:101C000001D0032E1DD112480078032819D33B229E
:101C1000104911A006F04AFB2888C0F30D0113A05B
:101C200006F044FB002404E0295D13A006F03EFB0F
:101C3000641C2888C0F30D00A042F5DC10A006F05B
:101C400035FB022E01D0032E01D10020288070BD6B
:101C5000E002002047A900085B20494E464F205D66
:101C60005B2025732025303564205D005B20253006
:101C70003264205D5B2000002530327820000000B7
:101C80005D0D0A0038B504460B480D46007804285F
:101C900009D3A01C00902088DB22C0F30D03074964
:101CA00007A006F003FB2178A01CFFF7E9FB002D3D
:101CB00001D00020208038BDE0020020C9A8000823
:101CC0005B204445425547205D5B2025732025302D
:101CD0003564205D5B204253505F4E65776C696EC2
:101CE00065537472696E673A3C25643E3C25733EC9
:101CF000205D0D0A0000000008B5002200920123BB
:101D00006A4608F0CDF90098002807D004494FF042
:101D100080500860BFF34F8FBFF36F8F08BD000086
:101D200004ED00E070B592B00121324802F0BEFC33
:101D3000314E04463078032805D323465B222F49D1
:101D40002FA006F0B3FA45F25005AC4217D000229E
:101D5000012108208DE807000D230C221421022008
:101D600005F060FA2A460121224802F0CDFC3078C5
:101D7000032804D35F2221492BA006F097FA0FAA6B
:101D80000EA90DA88DE807000CAB0BAA10A911A88D
:101D900005F0F2F99DF83C109DF83800CDE90001FE
:101DA000BDF840009DF8343000F5FA6080B29DF82F
:101DB00030209DF82C1000F091F90146684600F0A3
:101DC00061F94FF480710520CDE90001012308225B
:101DD0000D21002005F070FA4FF400710A20CDE9C2
:101DE0000001012308220D21002005F065FA12B040
:101DF00070BD0000C80B0020E00200204AA80008C7
:101E00005B20494E464F205D5B20257320253035F1
:101E100064205D5B2052544320626B7570203D202E
:101E2000252378205D0D0A005B20494E464F205D3A
:101E30005B2025732025303564205D5B20525443A0
:101E4000204672697374205365740D0A205D0D0A73
:101E50000000000070B50C4601462088020424D41E
:101E6000C0F30D000025362800D925802088C0F356
:101E70000D00204481702088401C2080C0F30D009C
:101E800001280ED0022811D003280ED02179891CF8
:101E900088420AD12046FFF7C3FB6179884209D006
:101EA00002E0A078FF2800D0258070BDE078C62829
:101EB000FAD170BD2088064940F4004020802046B9
:101EC000FFF7CAFB2046BDE870400221FFF7F6BDD0
:101ED000F91C000870B50C4601462088020420D485
:101EE000C0F30D0000250A2800D925802088C0F302
:101EF0000D00204481702088401C2080C0F30D001C
:101F000001280AD002280DD00B280AD12046FFF75D
:101F100096FB217B88420BD002E0A078552800D0A8
:101F2000258070BDE0780521B1EB101FF8D170BDA0
:101F30002088064940F4004020802046FFF73EFC00
:101F40002046BDE870400221FFF756BEF91C00088C
:101F500070B5024608880C46010425D4C0F30D0074
:101F600000253E2800D925802088C0F30D0020449C
:101F700082702088401C80B2C0F30D0120800129AE
:101F80000ED0022911D00A2A0ED140F40040208040
:101F9000C0F30D0020448570A078412809D002E0EC
:101FA000A078412800D0258070BDE0785428FAD16F
:101FB00070BDE0785428F6D12088811EC1F30D0150
:101FC000214489780D29EED1411EC1F30D01214430
:101FD00089780A29E7D1C0F30D00204401218570DA
:101FE0002046FFF74FFEDEE770B514460D46064665
:101FF000304603F0D8FB2028FAD122462946304645
:1020000003F056FD0028F8D170BD000070B50446FD
:1020100000681549154D884209D195F82F00401EDA
:10202000042804D8124800781249FFF753FF1249D8
:102030002068884216D10E4C641C20780F49FFF7A7
:1020400087FF95F82F00411E04290BD8032803D0E1
:10205000042801D0052805D12078BDE87040084942
:10206000FFF7F8BE70BD000000380140F602002006
:102070007C00002043040020004400409403002022
:10208000D6030020F3B587B0054608A8FEF738FA56
:10209000044640690E4A00F26C7060612169491C77
:1020A00021611278042A0CD394E8CC0003968DE8C1
:1020B0008300CDE90432522206490748A36906F09D
:1020C000F5F82C2221462846FEF702F909B0F0BDAA
:1020D000E00200203CA80008C0AB000830B58BB07F
:1020E000A0F26C70DDE90E54491ECDE90410CDE973
:1020F00002326846CDE90045FEF796F806490446E7
:102100000978042905D303464A22044904A006F0AD
:10211000CDF80BB0204630BDE002002031A8000809
:102120005B204445425547205D5B202573202530C8
:102130003564205D5B204253505F6D6B74696D6543
:10214000203D202578205D0D0A00000010B5030019
:102150004FF0000001D0002205E0002010BD9C5C83
:102160006040521C92B28A42F9D310BD10B5034CA4
:10217000607101F06FFBC4F8060010BDE0020020A2
:1021800000680968884201D9401A7047C943491C50
:102190000844704770B50C46054601F05BFB2A68A1
:1021A000824201D2801A02E0D1430844401CA0427E
:1021B00001D2002070BD012070BD000010B54FF4A9
:1021C000E1321949194806F045F803F00DFD03F016
:1021D0005BFE1749174806F027F806F00DF806F0E1
:1021E000EBFAFEF7BBFC04F057FD134C94F82F00FC
:1021F000401E04280BD8FFF7A7FC94F82F000328F3
:1022000003D0042801D0052801D1FFF7CFFB0A48ED
:1022100016380078032806D3BDE81040CD220749C0
:1022200007A006F043B810BD400C00200038014064
:10223000E80B002000300140F602002094A70008BF
:102240005B20494E464F205D5B20257320253035AD
:1022500064205D5B20486172647761726520696EFD
:10226000697469616C697A6174696F6E20636F6DFE
:10227000706C6574656421205D0D0A0010B54FF423
:10228000E1320749074805F0E5FF0749074805F02F
:102290007BFF05F02DFFBDE8104005F097BF000063
:1022A000800C002000440040680B00200024014006
:1022B0004FF4805001F0D0B8102001F0CDB810B527
:1022C000202001F0C9F84FF4807001F0C5F8BDE896
:1022D00010404FF4007001F0BFB872B6FEE7000086
:1022E00070B504461C480D462044B0F5805F04D309
:1022F00040F2FE51194806F05DFA4CF25036304675
:1023000000F05AF9002824D11548016821F48071A1
:1023100001602DB125703046BDE8704000F04CB929
:1023200024F003052E68A007C10EFF2088408643D5
:102330002946022000F00AFF0A4C00203246207491
:102340002946102000F062FF217C012902D00121E2
:10235000217470BD022070BD0000F8F74033000802
:10236000043C0240C00C00202DE9F0410446264800
:102370000E462044B0F5805F04D340F23A6123A0BA
:1023800006F018FA4CF25037384600F015F90500FF
:1023900034D12E48016821F4807101602EB126806D
:1023A000384600F009F9054628E0294E002030742F
:1023B000E043800713D024F003052F68A007C10E67
:1023C0004FF6FF70884087432946022000F0BEFE8A
:1023D0003A462946102000F019FF054609E0002280
:1023E0002146042000F012FF0022611C042000F0AE
:1023F0000DFF307C012804D0012030742846BDE850
:10240000F0810220FBE700000000F8F72E2E2F4499
:102410007269766572732F53544D33324C3178782C
:102420005F48414C5F4472697665722F5372632F27
:1024300073746D33326C3178785F68616C5F666C91
:102440006173685F65782E6300000000043C024001
:10245000C00C002070B504461A480D462044B0F563
:10246000805F04D340F29D61174806F0A3F94CF257
:102470005036304600F0A0F800281FD12DB125704D
:102480003046BDE8704000F097B824F003052E6890
:10249000A007C10EFF20884086432946022000F095
:1024A00055FE0A4C0020324620742946102000F0C8
:1024B000ADFE217C012902D00121217470BD0220D2
:1024C00070BD00000000F8F740330008C00C002089
:1024D0002DE9F041044623480E462044B0F5805FC4
:1024E00004D340F2D361204806F064F94CF250372F
:1024F000384600F061F805002FD12EB1268038460D
:1025000000F05AF8054628E0184E00203074E043E9
:10251000800713D024F003052F68A007C10E4FF6E3
:10252000FF70884087432946022000F00FFE3A469C
:102530002946102000F06AFE054609E000222146E7
:10254000042000F063FE0022611C042000F05EFE07
:10255000307C012804D0012030742846BDE8F08189
:102560000220FBE70000F8F740330008C00C002011
:102570000F4A00201168CB050E4904D5486940F088
:1025800002004861901513689B0505D54B6943F01F
:1025900001034B6140F4007013681B0505D54B69BE
:1025A00043F004034B6140F400601060704700008A
:1025B000183C0240C00C002070B5044601F04AF9F6
:1025C0000546114E09E0601C07D024B101F042F924
:1025D000401BA04201D9032070BD3068C007F2D172
:1025E0003068800701D5022030603068C00505D40E
:1025F0003068000502D43068800503D5FFF7B8FFC6
:10260000012070BD002070BD183C0240F8B5224D7D
:1026100000268DF800604FF40071284601F088F81C
:1026200004462915284601F083F81C4D610640EA4E
:102630001164A868401CA8602979052916D2DFE832
:1026400001F0031313050D00032300E000231349D9
:1026500022460831684604F005FF07E0642803D2EB
:1026600004208DF8000001E08DF800402878A04299
:1026700000D0AE6029799DF80000814207D06E71CC
:10268000AE6010B106F020FB01E006F015FB9DF8EE
:10269000000028712C70F8BD000002405C00002092
:1026A0000EB5694600900120019000200290074875
:1026B00000F0AEF8054800F0ADFC0A21034800F038
:1026C0002DFC024800F0FEF980B20EBD680B002020
:1026D000174890F82F1017480129007901D00229D6
:1026E00001D10F2819D0032903D0042901D00529CD
:1026F00003D11F2811D00F2801D011B103E005200C
:102700007047072809D01E2809D01D2809D01B288A
:1027100009D0172809D0FF207047002070470120FA
:102720007047022070470320704704207047000064
:10273000F6020020E00200200CB5042801D9322066
:102740000CBD04A1D1E90021CDE900211DF8000054
:102750000CBD00003B474F596100000010B5044616
:1027600000681B49884203D074211AA006F022F8A1
:1027700094F84800012808D0012084F84800204639
:10278000FEF73EF8010002D020E0022010BDE06C10
:1027900042F20102904340F48050E064E06CC205D4
:1027A0004FF0000000D4206584F8480022686FF0E4
:1027B000040010602068826812F4401F06D142684D
:1027C000520503D4826842F480028260084610BD3C
:1027D000002401402E2E2F447269766572732F53A8
:1027E000544D33324C3178785F48414C5F447269C4
:1027F0007665722F5372632F73746D33326C317838
:10280000785F68616C5F6164635F65782E63000068
:10281000F8B500270C4605460097006897493E46E4
:10282000884204D040F2917195A005F0C3FF206862
:10283000C0B3012836D0022834D0032832D004286F
:1028400030D005282ED006282CD007282AD00828DA
:1028500028D0092826D00A2824D00B2822D00C28DA
:1028600020D00D281ED00E281CD00F281AD01028DA
:1028700018D0112816D0122814D0132812D01428DA
:1028800010D015280ED016280CD017280AD01828DA
:1028900008D0192806D01A2804D040F2927178A0E6
:1028A00005F088FF6068012838D0022836D0032858
:1028B00034D0042832D0052830D006282ED007285E
:1028C0002CD008282AD0092828D00A2826D00B285E
:1028D00024D00C2822D00D2820D00E281ED00F285E
:1028E0001CD010281AD0112818D0122816D013285E
:1028F00014D0142812D0152810D016280ED017285E
:102900000CD018280AD0192808D01A2806D01B285D
:1029100004D040F293715AA005F04CFFA06890B12A
:10292000012810D002280ED003280CD004280AD089
:10293000052808D0062806D0072804D040F2947154
:102940004FA005F037FF95F84800012812D001206C
:1029500085F8480060681F2107280DD22A68136C8B
:10296000401E00EB800081408B43216881400B4377
:10297000136435E00220F8BD0D280BD22A68D36B12
:10298000C01F00EB800081408B43216881400B43D6
:10299000D36325E013280BD22A68936B0D3800EB24
:1029A000800081408B43216881400B43936317E093
:1029B0002A6819280AD2536B133800EB8000814033
:1029C0008B43216881400B43536309E0136B193833
:1029D00000EB800081408B43216881400B431363EF
:1029E000206807220A280AD229684B6900EB4000B8
:1029F00082409343A268824013434B611AE014283B
:102A00000BD229680B690A3800EB400082409343DF
:102A1000A268824013430B610CE01A2810D8296881
:102A2000CB68143800EB400082409343A268824098
:102A30001343CB602068102804D0112802D019E07D
:102A400000BF17E01C480168090213D4016841F473
:102A500000010160206810280CD11848184900684E
:102A6000B0FBF1F000EB8000400000E0401E009061
:102A70000028FBD185F848603846F8BD00240140A5
:102A80002E2E2F447269766572732F53544D333254
:102A90004C3178785F48414C5F4472697665722F9B
:102AA0005372632F73746D33326C3178785F686161
:102AB0006C5F6164632E63000427014060020020A4
:102AC00040420F0010B5044600680549884204D012
:102AD00040F27D6103A005F06DFE2068806D10BDA1
:102AE000002401402E2E2F447269766572732F5395
:102AF000544D33324C3178785F48414C5F447269B1
:102B00007665722F5372632F73746D33326C317824
:102B1000785F68616C5F6164632E63002DE9F84F34
:102B200004004FF000057CD0D0492068884204D0D2
:102B300040F2BD11CEA005F03DFE60684FF4803735
:102B40004FF4003840B1B84206D0404504D04FF4AD
:102B5000DF71C7A005F02EFEA0684FF0807B4FF01C
:102B600000794FF0407A50B1584508D0484506D01A
:102B7000504504D040F2BF11BDA005F01BFEE06837
:102B800038B1B0F5006F04D04FF4E071B8A005F093
:102B900011FE20694FF4807630B1B04204D040F28B
:102BA000C111B3A005F006FE6069B0F5806F05D0D5
:102BB00020B14FF4E171AEA005F0FCFDA06990B129
:102BC000102810D020280ED030280CD040280AD051
:102BD000502808D0602806D0702804D040F2C311D5
:102BE000A3A005F0E7FDE06958B1404509D0B8421F
:102BF00007D0B0F5403F04D04FF4E2719CA005F03F
:102C0000D9FD206A20B140F2C51199A005F0D2FD8E
:102C100094F8240040B1012806D04FF4E37194A049
:102C200000E06BE005F0C6FD606B484523D05045E1
:102C300021D0B0F1C06F1ED0B0F1E06F1BD0B0F169
:102C4000006F18D0B0F1806F15D0B0F1A06F12D026
:102C5000B0F1106F0FD0B0F1206F0CD058B15845C3
:102C600009D0B0F1706F06D0102804D040F2C7111F
:102C70007FA005F09FFD94F83C0030B1012804D0FE
:102C80004FF4E4717AA005F095FD206900281ED06C
:102C9000A06A401E1A2804D94FF4E67174A005F00A
:102CA00089FD94F82C0090B1012807D040F2CD1195
:102CB0006FA005F07FFD94F82C0040B1206B401E02
:102CC000072804D94FF4E87169A005F073FD606B23
:102CD00010280FD0A06B68B1B0F1805F0AD0B0F1BE
:102CE000005F07D0B0F1405F04D04FF4EB7160A0FB
:102CF00005F060FDE06C002718B111E00120BDE88F
:102D0000F88F2765684884F84870016841F0010130
:102D10000160006800F001000090204600F0CEF84D
:102D2000E06CC00675D4E06C20F4885040F00200DE
:102D3000E0645E480168626821F44031114301603B
:102D40006169E0684FF40073084394F83C2093FAFB
:102D5000A3F3B3FA83F3216A9A4011430843022193
:102D600094F824C091FAA1F1B1FA81F10CFA01F1C1
:102D70000843616B102902D0A26B114308432268FB
:102D80001168C943490626D5A169E3690843A168CA
:102D900019432369B3420AD0012B08D04FF0000831
:102DA00094F82C3041EA0801012B02D00CE0B04627
:102DB000F6E7BCF1000F2DD0E36C43F02003E36491
:102DC000236D43F0010323655368DFF8E4C003EA91
:102DD0000C030B43536021688A68364B1A40024348
:102DE0008A602169B14223D0012921D021680A6B70
:102DF00022F0F8720A63216889682F4A11408142E3
:102E000026D12765E06C20F0020040F00100E0646C
:102E100029E027E04FF4604C236B9CFAACFCBCFA31
:102E20008CFC5B1E03FA0CF30B4343F40061CBE70D
:102E300021680A6B4FF0F87622F0F873A26A96FACE
:102E4000A6F6B6FA86F6521EB24013430B63D2E7DB
:102E5000E06C20F0020040F01000E064206D40F0D3
:102E6000010020650125284649E7000000240140B3
:102E70002E2E2F447269766572732F53544D333260
:102E80004C3178785F48414C5F4472697665722FA7
:102E90005372632F73746D33326C3178785F68616D
:102EA0006C5F6164632E6300203802400427014098
:102EB000FF16FCFC8DF1FFC0FEFF80BF10B586B091
:102EC000044614216846FDF71CFA1149206888421F
:102ED0001CD11048016841F400710160006800F4E1
:102EE000007005900B48001F016841F0010101606E
:102EF0000068694600F00100059002200090032060
:102F0000019000200290044800F0B2FA06B010BD13
:102F10000024014020380240000002402DE9F04129
:102F20000D46044600682C49884204D040F2C34153
:102F30002AA005F03FFC206881684FF00007490592
:102F40000BD58068C00508D5E06C40F02000E06437
:102F500084F848700120BDE8F08100F07BFC064653
:102F60000FE0681C0DD025B100F074FC801BA84256
:102F700007D9E06C40F00400E06484F84870032056
:102F8000E9E7206800688007EBD5A06918B92168D7
:102F90006FF012000860E06C40F40070E06420689C
:102FA000816811F0405F14D194F8241089B9016B45
:102FB00011F0F87F02D0806840050AD4E06C20F45C
:102FC0008070E064E06CC00403D4E06C40F0010069
:102FD000E0640020BFE70000002401402E2E2F44B3
:102FE0007269766572732F53544D33324C31787851
:102FF0005F48414C5F4472697665722F5372632F4C
:1030000073746D33326C3178785F68616C5F6164C2
:10301000632E630010B5044600682049884204D03E
:103020004FF489611EA005F0C5FB94F84800012803
:1030300022D0012084F848002046FDF7E1FB00285B
:103040001BD1E16C40F20162914341F48071E16473
:1030500021684A68520505D5E26C22F4005242F418
:103060008052E264E26CD3044FF0000206D5236D77
:1030700023F00603236502E0022010BD226584F8D8
:1030800048206FF022020A6021688A6812F0405FCF
:10309000F3D18A6842F080428A6010BD002401406A
:1030A0002E2E2F447269766572732F53544D33322E
:1030B0004C3178785F48414C5F4472697665722F75
:1030C0005372632F73746D33326C3178785F68613B
:1030D0006C5F6164632E630010B590F821100024CA
:1030E000022903D00421816301241AE001680A68DF
:1030F00022F00E020A6001680A6822F001020A60EA
:1031000090F84010012301F01C0203FA02F1C26B97
:10311000516080F82130002180F82010416B01B10E
:103120008847204610BD000070B5044600F092FBB1
:103130000546601C02D004484068044400F08AFB45
:10314000401BA042FAD370BD5402002070B50D465A
:10315000040008D0012C06D0022C04D040F21B3110
:1031600013A005F027FB22482844B0F5805F04D364
:103170004FF447710EA005F01DFB4CF2503630465F
:10318000FFF71AFA002811D11A494861022C03D01E
:10319000012C03D024B104E0286002E0288000E084
:1031A00028703046BDE87040FFF706BA70BD0000D9
:1031B0002E2E2F447269766572732F53544D33321D
:1031C0004C3178785F48414C5F4472697665722F64
:1031D0005372632F73746D33326C3178785F68612A
:1031E0006C5F666C6173685F65782E630000000039
:1031F0000000F8F7C00C00200348016841F001010D
:103200000160002070470000043C02402DE9F047B7
:10321000394F04461546387C0E4601281AD0012045
:10322000387474B1012C0CD0022C0AD0042C08D0B4
:10323000082C06D0102C04D04FF456712FA005F0A6
:10324000B9FA4CF250384046FFF7B6F94FF0000992
:1032500018B114E00220BDE8F087C7F81490374891
:103260004FF480513044022C0CD0012C1CD004B3FC
:10327000042C23D0082C26D0102C29D0012087F82C
:103280001090E8E7884204D340F20D712CA005F0BD
:1032900091FA44464046FFF78FF90028EFD1356098
:1032A0002046FFF789F9EAE7A9B23046FFF710F99F
:1032B000E5E7E9B23046FFF7CDF8E0E7E9B230469E
:1032C000FFF70EF8DBE7A9B23046FFF74DF8D6E777
:1032D000884204D340F27B6119A005F06BFA4446A2
:1032E0004046FFF769F90028C9D12548016821F453
:1032F00080710160D3E70000C00C00202E2E2F4407
:103300007269766572732F53544D33324C3178782D
:103310005F48414C5F4472697665722F5372632F28
:1033200073746D33326C3178785F68616C5F666C92
:103330006173685F65782E63000000000000F8F795
:103340002E2E2F447269766572732F53544D33328B
:103350004C3178785F48414C5F4472697665722FD2
:103360005372632F73746D33326C3178785F686198
:103370006C5F666C6173685F65782E6300000000A7
:10338000043C024006480068C00707D004480549CD
:103390000830016004490160002070470120704737
:1033A000043C0240EFCDAB890504030210490978C3
:1033B00020280FD0B0F5007F13D0B0F5807F12D059
:1033C000102813D1032911D303469B2209490AA0CF
:1033D00004F06CBF032909D303468A22054913A0D0
:1033E000F6E7012000E00220FDF7F2BA7047000086
:1033F000E002002001A800085B20494E464F205DF6
:103400005B2025732025303564205D5B20455854B2
:103410004920204158503137335F494E54315F5075
:10342000696E203D202578205D0D0A005B20494E05
:10343000464F205D5B2025732025303564205D5B81
:10344000204558544920204B45595F50696E203D16
:10345000202578205D0D0A00044910B50A68024253
:1034600002D00860FFF7A2FF10BD00001404014065
:103470002DE9F84FDFF840A20026DFF840B20D46F4
:103480000446504511D05C450FD08D4884420CD085
:103490008C48844209D08C48844206D08B488442B0
:1034A00003D0B9218AA005F085F928680104090C28
:1034B00001D0000C03D0BA2185A005F07BF9686823
:1034C000F8B101281DD011281BD0022819D01228CC
:1034D00017D08E49884214D08D49884211D08D4929
:1034E00088420ED08C4988420BD08C49884208D043
:1034F0008B49884205D0032803D0BB2174A005F076
:1035000059F9A868002807D00128FCD00228FAD071
:10351000BC216FA005F04EF9C7E0012000FA06F8C3
:1035200017EA08077ED06868012805D0022803D072
:10353000112801D012281DD1E86848B1012807D010
:10354000022805D0032803D0CC2161A005F032F970
:10355000A1687000032282409143EA6882400A43D6
:10356000A2606068297920EA0800C1F30011B14027
:1035700001436160E2687000032101FA00F8A96864
:10358000814622EA080201FA09F11143E160686804
:10359000022801D0122827D1544511D05C450FD004
:1035A000474884420CD04748844209D04648844268
:1035B00006D04648844203D0E42145A005F0FAF83D
:1035C00028690F2803D9E52141A005F0F3F8F00898
:1035D00004EB8000026A7107C90E0F238B409A43E7
:1035E0002B698B40134303622068297920EA080085
:1035F00001F0030101FA09F1014321606868C0008C
:1036000052D54848016841F001010160006826F088
:10361000030100F00100009043480A189368B007C6
:10362000010F00E040E00F2088408343544501D162
:10363000002013E05C4501D101200FE020488442C6
:1036400001D102200AE01F48844201D1032005E095
:103650001D48844201D1042000E005208840184321
:103660009060324908686A68B843D20300D538438D
:1036700008602E49091D08686A68B843920300D59E
:10368000384308602949083108686A68B843D2029B
:1036900000D53843086025490C3108686A68B8438A
:1036A000920200D538430860761C2F6837FA06F07E
:1036B0007FF433AFBDE8F88F000002400004024001
:1036C00000080240000C02400010024000140240BA
:1036D0002E2E2F447269766572732F53544D3332F8
:1036E0004C3178785F48414C5F4472697665722F3F
:1036F0005372632F73746D33326C3178785F686105
:103700006C5F6770696F2E6300000000000011108D
:1037100000002110000031100000121000002210E3
:103720000000321020380240000001400004014037
:1037300070B50C00054604D140F2851103A005F0D8
:1037400039F82869204000D0012070BD2E2E2F446A
:103750007269766572732F53544D33324C317878D9
:103760005F48414C5F4472697665722F5372632FD4
:1037700073746D33326C3178785F68616C5F677039
:10378000696F2E630000000070B50C00054604D17F
:1037900040F2BB1105A005F00DF8696924EA0100AB
:1037A000214040EA0140A86170BD00002E2E2F4448
:1037B0007269766572732F53544D33324C31787879
:1037C0005F48414C5F4472697665722F5372632F74
:1037D00073746D33326C3178785F68616C5F6770D9
:1037E000696F2E630000000070B515460C00064698
:1037F00004D140F2A31108A004F0DCFF45B1012D73
:1038000004D04FF4D27104A004F0D4FFB46170BDB1
:103810002004B06170BD00002E2E2F4472697665C1
:1038200072732F53544D33324C3178785F48414C8A
:103830005F4472697665722F5372632F73746D33B0
:10384000326C3178785F68616C5F6770696F2E6386
:10385000000000000148806870470000540200200A
:1038600070B5040033D023492068884203D0AC21CE
:1038700021A004F09FFF606878B101280DD00228D4
:103880000BD0032809D0042807D0052805D0062826
:1038900003D0AD2118A004F08DFFA068B0F5805FC3
:1038A00003D3AE2114A004F085FF21684CF6CC4070
:1038B0000860216845F255500860D4E90001416074
:1038C0002168A0688860FFF7C5FF054608E0012071
:1038D00070BDFFF7BFFF401B292801D9032070BD31
:1038E0002068C0680028F4D121684AF6AA20086040
:1038F000002070BD003000402E2E2F447269766586
:1039000072732F53544D33324C3178785F48414CA9
:103910005F4472697665722F5372632F73746D33CF
:10392000326C3178785F68616C5F697764672E63A9
:103930000000000000684AF6AA21016000207047DC
:103940000248816842681144816070475402002037
:1039500010B50024032000F0D1F80F2000F008F883
:1039600008B1012401E000F025F8204610BD000058
:1039700070B50E4E05460024706898B14FF47A7108
:10398000B1FBF0F00A490968B1FBF0F001F0F6FE76
:1039900040B9102D06D200222946501E00F060F8D2
:1039A000356000E00124204670BD00005402002074
:1039B00060020020104882B0016841F000410160BF
:1039C000016801F000410091011F0A6842F0010204
:1039D0000A60096801F001010091016841F080511D
:1039E00001600068002200F0805000900F21901EBE
:1039F00002B000F035B800002438024010B50400D1
:103A000003D5D82107A004F0D5FE002C09DB04F073
:103A10001F01012088406109890001F1E021C1F8FE
:103A2000000110BD2E2E2F447269766572732F53DC
:103A3000544D33324C3178785F48414C5F44726961
:103A40007665722F5372632F73746D33326C3178D5
:103A5000785F68616C5F636F727465782E630000D5
:103A600070B514460D460646102A03D3C42113A090
:103A700004F0A0FE102D03D3C52110A004F09AFE7F
:103A80001D480068C0F30223C3F10700042800D9D1
:103A90000420191D072901D2002300E0DB1E0122AA
:103AA00002FA00F1491E294099409A40521E2240D4
:103AB0003046BDE87040114304F01CBC2E2E2F444C
:103AC0007269766572732F53544D33324C31787866
:103AD0005F48414C5F4472697665722F5372632F61
:103AE00073746D33326C3178785F68616C5F636FCB
:103AF000727465782E6300000CED00E010B504468A
:103B000007280BD0062C09D0052C07D0042C05D093
:103B1000032C03D0AC2108A004F04CFE154A04F09D
:103B2000070110684FF6FF03184040EA01201249D0
:103B30000843106010BD00002E2E2F447269766578
:103B400072732F53544D33324C3178785F48414C67
:103B50005F4472697665722F5372632F73746D338D
:103B6000326C3178785F68616C5F636F727465780E
:103B70002E6300000CED00E00000FA052DE9F84F7F
:103B800004460068012803D0622153A004F012FE0D
:103B90002078C00776D06068A8B1B0F5803F12D019
:103BA000B0F5003F0FD0B0F5403F0CD059498842E6
:103BB00009D05949884206D05849884203D06E211D
:103BC00045A004F0F7FD564F00253868C00008D422
:103BD000386840F0805038603868012500F0805027
:103BE000009050480168C90511D40168804641F42D
:103BF00080710160FFF72EFE064604E0FFF72AFE03
:103C0000801B642844D8D8F80000C005F6D5DFF83A
:103C10001091A9F12409D9F8000000F0C0416068B2
:103C200000F0C0428A420AD0C0F30141032906D104
:103C3000D9F80010890302D50120BDE8F88FDFF81C
:103C4000E08008F11008D8F8001011F4403125D0B8
:103C500000F44030884221D02078C0071ED0D8F828
:103C60000000314A012320F4403013600023136028
:103C7000C8F80000C00511D5FFF7ECFD064641F27B
:103C8000883A07E025E0FFF7E5FD811B514501D9A2
:103C90000320D2E7D8F800008005F4D56068C0F3AF
:103CA0000141032908D1D9F8002000F0C04022F0DA
:103CB000C0420243C9F80020D8F80010626802F43C
:103CC00040321143C8F800101DB1386820F0805010
:103CD00038600020B1E700002E2E2F44726976650F
:103CE00072732F53544D33324C3178785F48414CC6
:103CF0005F4472697665722F5372632F73746D33EC
:103D0000326C3178785F68616C5F7263635F65788D
:103D10002E63000000000320000003400000036049
:103D20002438024000700040DC0647422DE9F0478D
:103D30000D46040076D035B1012D04D040F22A3171
:103D400087A004F037FDDFF85082D8F8000000F0BB
:103D50000100A84214D2012D05D1D8F8001041F07D
:103D60000401C8F80010D8F8001021F0010129431F
:103D7000C8F80010D8F8000000F00100A84251D1A6
:103D80002078864E80071CD5A068A0B1802812D06C
:103D9000902810D0A0280ED0B0280CD0C0280AD06F
:103DA000D02808D0E02806D0F02804D040F24131D5
:103DB0006BA004F0FFFC3068A16820F0F00008431D
:103DC00030602078C00768D0744F6068083F88B1C1
:103DD00001282ED0022826D0032827D04FF4527174
:103DE0005FA004F0E7FC606802281CD003281DD007
:103DF00001281ED038688005002865DA30686168BF
:103E000020F0030008433060FFF724FD0746606898
:103E100041F28831022815D0032820D00128894694
:103E200029D036E050E038688003E5E73868800143
:103E3000E2E738688007DFE7FFF70CFDC11B494563
:103E400001D923E089463068C0F381000228F3D10C
:103E500023E0FFF7FFFCC11B494501D916E0894665
:103E60003068C0F381000328F3D116E0FFF7F2FCBD
:103E7000C11B49450AD83068C0F381000128F5D13B
:103E80000BE0FFF7E7FCC11B494502D90320BDE861
:103E9000F087306810F00C0FF3D1D8F800104046CE
:103EA00001F00101A94211D9012D03D1016841F0AE
:103EB00004010160016821F00101294301600068EB
:103EC00000F00100A84201D00120E0E720784FF483
:103ED000806540074FF4A0674FF4C0684FF4E06975
:103EE00014D5E06860B1A8420AD0B84208D0404575
:103EF00006D0484504D040F2AD3119A004F05AFC78
:103F00003068E16820F4E060084330602078000702
:103F100015D5206960B1A8420AD0B84208D0404502
:103F200006D0484504D04FF46D710DA004F042FC5A
:103F30003068216920F4605040EAC100306000F030
:103F400055F83168164AC1F30311515CC840154950
:103F5000086015480068BDE8F047FFF709BD00009C
:103F60002E2E2F447269766572732F53544D33325F
:103F70004C3178785F48414C5F4472697665722FA6
:103F80005372632F73746D33326C3178785F68616C
:103F90006C5F7263632E6300003C0240083802408D
:103FA0002DAA0008600200205402002004480549A0
:103FB00000680968044AC1F30221515CC840704797
:103FC00060020020083802403DAA00080448054964
:103FD00000680968044AC1F3C221515CC8407047B7
:103FE00060020020083802403DAA000870B5154D57
:103FF0002968154801F00C02042A0CD04410082A44
:104000000AD00C2A0AD0281F0068C0F342314FF4AE
:104010000040491C884070BD204670BD0B4AC1F36A
:104020008343D35CC1F381522968521CC90302D572
:10403000A3FB040101E0A3FB00010023FCF7C2F88D
:1040400070BD0000083802400024F40024AA0008D3
:104050002DE9F84F04007CD0206870B1C1070CD165
:1040600081070AD4010708D4410706D4C00604D446
:104070004FF4A871F1A004F09DFBFE4801680068B0
:1040800001F00C0600F4803B2078FB4DC0074AD0BD
:10409000606840B1012806D0052804D040F25911CB
:1040A000E6A004F087FB082E12D00C2E02D1BBF53F
:1040B000803F0DD06068012811D008B1052818D0C4
:1040C000286820F480302860286820F4802009E0E7
:1040D0002868800327D560680028BCD023E02868C2
:1040E00040F480302860606888B1FFF7B3FB074672
:1040F00009E0286840F480202860F0E7FFF7AAFB79
:10410000C01B64287AD828688003F7D50BE0FFF736
:10411000A1FB074604E0FFF79DFBC01B6428F1D814
:1041200028688003F7D42078DFF8508380074FF0A9
:1041300001094FF0000A48D5E06830B1012804D0E9
:104140004FF4C671BDA004F035FB20691F2806D9C5
:1041500000E092E040F28D11B8A004F02BFB042E99
:104160000CD00C2E02D1BBF1000F07D0E068F0B1EB
:10417000C8F80090FFF76EFB07460BE02868800741
:104180000BD5E068012878D107E0FFF763FBC01B7F
:104190000228B7D828688007F7D5B648001F0168FD
:1041A000226921F4F85141EA022101600DE0C8F8CA
:1041B00000A0FFF74FFB074604E0FFF74BFBC01BD7
:1041C00002289FD828688007F7D42078C00678D5C1
:1041D0004FF4004B9EB1A069002873D0012807D08E
:1041E0004FF4027195A004F0E5FAA0690028F4D01C
:1041F000C8F82090FFF72EFB074669E0E1E0286849
:10420000800502D5A069002837D0E069FF2804D9CD
:1042100040F2D71189A004F0CDFA206AA8B1B0F518
:10422000005F12D0B0F5804F0FD0B0F5C04F0CD06A
:1042300058450AD0B0F5204F07D0B0F5404F04D014
:104240004FF4EC717DA004F0B5FA8A4F206A3F1F4D
:10425000396801F46041884210D902F017FF002844
:1042600091D13868216A20F4604008433860217F8A
:10427000386861F31F6038600FE0E1E1396821F4CC
:10428000604101433960217F386861F31F60386005
:10429000206A02F0FBFE0028E2D1216A09EB5131CD
:1042A0000BFA01F073490968754AC1F30311515CB7
:1042B000C8407449086074480068FFF759FB00283B
:1042C0007ED144E035E0FFF7C5FAC01B022878D85C
:1042D00028688005F7D5E069FF2804D94FF40771F5
:1042E00056A004F067FA206AA8B1B0F5005F12D0BA
:1042F000B0F5804F0FD0B0F5C04F0CD058450AD064
:10430000B0F5204F07D0B0F5404F04D040F21D214A
:104310004AA004F04FFA5748001F0168226A21F4AE
:10432000604111430160227F016862F31F610160F7
:104330000DE0C8F820A0FFF78DFA074604E0FFF76C
:1043400089FAC01B0228C2D828688005F7D42078D3
:104350004E4F00072BD5DFF838B16069C0B1012896
:1043600006D04FF40F7135A004F024FA606978B1DB
:10437000CBF80090FFF76EFA834605E0FFF76AFA84
:10438000A0EB0B000228A2D838688007F6D50EE013
:10439000CBF800A0FFF75EFA834605E0FFF75AFA74
:1043A000A0EB0B00022892D838688007F6D420785A
:1043B000400771D500200090A06858B1012801E0A5
:1043C00024E1EAE006D0052804D04FF41A711BA0BE
:1043D00004F0F0F92D4810380068C0000AD42B48CA
:1043E0001038016841F080510160006800F0805091
:1043F0000120009027480168C90511D4016841F4E3
:1044000080710160FFF726FA834605E0FFF722FA84
:10441000A0EB0B00642896D81E480068C005F5D5AF
:10442000A068012839D008B1052840D0386820F4A8
:1044300080703860386820F4806031E02E2E2F4480
:104440007269766572732F53544D33324C317878DC
:104450005F48414C5F4472697665722F5372632FD7
:1044600073746D33326C3178785F68616C5F72633E
:10447000632E6300083802400038024000004742C3
:104480002DAA0008600200205402002034380240A7
:10449000800647420070004030E0386840F4807089
:1044A0003860A068A0B1FFF7D5F983460CE0386802
:1044B00040F480603860F0E7FFF7CCF9A0EB0B0127
:1044C00041F28830814268D838688005F4D50EE022
:1044D000FFF7C0F9834607E0FFF7BCF9A0EB0B013B
:1044E00041F28830814258D838688005F4D4009869
:1044F00020B15548016821F080510160606A0028B0
:104500004AD0012809D0022807D04FF42B71AFF20E
:10451000D40004F04FF9606AF0B30C2E7CD002286E
:1045200005D0C8F860A0FFF795F9044670E0A06ACE
:1045300040B1B0F5803F05D040F2B521AFF2041094
:1045400004F038F9E06AE8B1B0F5802F1AD0B0F580
:10455000002F17D0B0F5402F14D0B0F5801F11D028
:10456000B0F5A01F0ED0B0F5C01F0BD0B0F5E01F06
:1045700008D0B0F5001F05D040F2B621AFF24410CC
:1045800004F018F9206BB0F5800F0ED0B0F5000FD5
:104590000BD0B0F5400F01E054E036E005D040F21A
:1045A000B721AFF2681004F005F94746C8F860A0DB
:1045B000FFF750F9064604E0FFF74CF9801B02288C
:1045C00023D828688001F7D4D4E90A1001431E4893
:1045D000226B1C38036823F47D031A4311430160E6
:1045E000C7F86090FFF736F9044604E0FFF732F9A8
:1045F000001B022809D828688001F7D522E00BE0CB
:10460000FFF728F9001B022802D90320BDE8F88F24
:1046100028688001F4D415E00128F7D00A481C3836
:104620000068A26A00F48031914209D1E26A00F484
:104630007011914204D1216B00F44000884201D0F6
:104640000120E3E70020E1E7243802400068064942
:10465000884208D105480078032804D37022044911
:1046600004A003F023BE704700280040E0020020B1
:1046700079A800085B20494E464F205D5B202573DA
:104680002025303564205D5B2048414C5F52544307
:1046900045785F416C61726D424576656E74436129
:1046A0006C6C6261636B205D0D0A000070B50C4696
:1046B0000546142904D340F2974104A004F07AF887
:1046C0002868503050F8240070BD00002E2E2F4472
:1046D0007269766572732F53544D33324C3178784A
:1046E0005F48414C5F4472697665722F5372632F45
:1046F00073746D33326C3178785F68616C5F72749B
:10470000635F65782E63000070B515460C4606465B
:10471000142904D340F2814103A004F04BF830681F
:10472000503040F8245070BD2E2E2F4472697665AB
:1047300072732F53544D33324C3178785F48414C6B
:104740005F4472697665722F5372632F73746D3391
:10475000326C3178785F68616C5F7274635F657822
:104760002E63000000680649884208D10548007899
:10477000032804D37522044904A003F097BD7047B1
:1047800000280040E002002097A800085B20494E66
:10479000464F205D5B2025732025303564205D5B0E
:1047A0002048414C5F52544345785F57616B6555D3
:1047B0007054696D65724576656E7443616C6C62A8
:1047C00061636B205D0D0A0010B504460068C06887
:1047D000400509D52046FFF7C5FF2068C16801F0F4
:1047E000800161F49061C16003494FF4801008605A
:1047F0000120607710BD00001404014000680649E4
:10480000884208D105480078032804D36A22044965
:1048100004A003F04BBD704700280040E0020020D8
:104820005DA800085B20494E464F205D5B20257344
:104830002025303564205D5B2048414C5F52544355
:104840005F416C61726D414576656E7443616C6C5D
:104850006261636B205D0D0A0000000010B5044624
:1048600000688168C9040CD5C068C00509D5204618
:10487000FFF7C4FF2068C16801F0800161F4C071D6
:10488000C1602068816889040CD5C068800509D59D
:104890002046FFF7DBFE2068C16801F0800161F46B
:1048A0002071C16003494FF4003008600120607737
:1048B00010BD00001404014070B515000C460646FA
:1048C00006D0012D04D040F2F33110A003F072FFA6
:1048D000306841681B480140080CE070C1F30422B5
:1048E000627001F03F02A270C1F34231217055B9EC
:1048F00002F012FCE070607802F00EFC6070A078AC
:1049000002F00AFCA070002070BD00002E2E2F4483
:104910007269766572732F53544D33324C31787807
:104920005F48414C5F4472697665722F5372632F02
:1049300073746D33326C3178785F68616C5F727458
:10494000632E63003FFFFF0070B515000C4606465E
:1049500006D0012D04D040F25B3111A003F02AFFF4
:10496000306801681C480140C1F305402070C1F364
:104970000622627001F07F02A270402202EA114119
:10498000E17055B902F0C8FB2070607802F0C4FBFA
:104990006070A07802F0C0FBA070002070BD000025
:1049A0002E2E2F447269766572732F53544D333215
:1049B0004C3178785F48414C5F4472697665722F5C
:1049C0005372632F73746D33326C3178785F686122
:1049D0006C5F7274632E63007F7F7F0070B504008C
:1049E00045D045492068884203D0FC2143A003F00C
:1049F000E1FE6068402804D018B1FD213FA003F01B
:104A0000D9FEA0687F2803D9FE213CA003F0D2FE86
:104A1000E068B0F5005F03D3FF2138A003F0CAFEC1
:104A2000206968B1B0F5001F0AD0B0F5800F07D03B
:104A3000B0F5C00F04D04FF4807130A003F0BAFE7F
:104A4000606938B1B0F5801F04D040F201112BA08D
:104A500003F0B0FEA06938B1B0F5802F04D04FF458
:104A6000817126A003F0A6FE607F10B106E0012050
:104A700070BD00202077204600F05EF802206077AD
:104A80002168CA204862216853204862204602F00B
:104A900057FBFF210028206803D041620420607783
:104AA000E5E78268234B1A40826020688268636869
:104AB0001A43D4E904352B431A4382602268E06824
:104AC000106120680269238942EA0342026120687A
:104AD000C26822F08002C2602068026C22F4802248
:104AE00002642068026CA3691A4302642068416270
:104AF00001206077002070BD002800402E2E2F443A
:104B00007269766572732F53544D33324C31787815
:104B10005F48414C5F4472697665722F5372632F10
:104B200073746D33326C3178785F68616C5F727466
:104B3000632E6300BFFF8FFF10B500680C498842E9
:104B400014D10C4901200860002205210320FEF742
:104B500087FF0320FEF752FF002205212920FEF7E0
:104B60007FFFBDE810402920FEF748BF10BD0000C0
:104B700000280040D80647422DE9F05F17000C4698
:104B8000054606D0012F04D040F2EE41C1A003F04B
:104B900011FEA069B0F5807F07D0B0F5007F04D08A
:104BA00040F2EF41BBA003F005FEE06810F07F3F4C
:104BB00004D04FF49E61B7A003F0FCFD206938B12A
:104BC000B0F1804F04D040F2F141B2A003F0F2FD09
:104BD000287F012823D04FF0010B85F81CB002205C
:104BE00068772868002680684FEA4060D7B10028BF
:104BF00077DA207802F090FA20B1207802F08CFA6F
:104C00000C2804D940F21F51A2A003F0D3FDE07894
:104C1000002871D040286FD04FF4A46169E00220D1
:104C2000BDE8F09F00280FDA2078401E0B2804D939
:104C30004FF4A06197A003F0BDFDE07868B1402873
:104C40000BD040F2015105E0E6702078172804D916
:104C500040F206518FA003F0ADFD60783B2804D9E7
:104C60004FF4A1618BA003F0A5FDA0783B2804D9E7
:104C700040F2095187A003F09DFD20690028207DA6
:104C800029D0012810D002280ED003280CD00428E7
:104C90000AD0052808D0062806D0072804D040F2FC
:104CA00011517CA003F086FD207802F03EFA020448
:104CB000607802F03AFA42EA0022A07802F035FA6F
:104CC0000243E07842EA0042207D02F02EFA42EAF6
:104CD00000675DE005E0401E1E28E5D940F20D5159
:104CE000DFE7E670207802F017FA172804D940F2BF
:104CF000255168A003F05EFD607802F00DFA3B28B4
:104D000004D94FF4A56163A003F054FDA07802F02C
:104D100003FA3B2804D940F229515EA003F04AFD72
:104D200020690028207D57D002F0F6F9012822D012
:104D3000207D02F0F1F902281DD0207D02F0ECF96F
:104D4000032818D0207D02F0E7F9042813D0207D35
:104D500002F0E2F905280ED0207D02F0DDF90628E8
:104D600009D0207D02F0D8F9072804D040F2315153
:104D700048A003F01FFDA0782178E27840EA0140C6
:104D80006178090241EA02410843217D40EA016756
:104D9000206929680743E0680743CA2048622968F8
:104DA00053204862A0694FF00309B0F5807F28685E
:104DB0004FF0FF084FF47A7A816818D021F400711F
:104DC00081602868C16801F0800161F42071C160D0
:104DD000FEF740FD04463AE002F09EF920B1207D46
:104DE00002F09AF91F28C6D940F22D51C0E721F4EC
:104DF000807181602868C16801F0800161F4C07130
:104E0000C160FEF727FD044604E0FEF723FD001B0A
:104E1000504514D82868C068C007F6D02868C76114
:104E20002868816841F4807181602868816841F454
:104E300080511BE0FEF70EFD001B504507D9296885
:104E4000C1F8248085F81D902E770320E8E62868B5
:104E5000C0688007EED5286807622868816841F439
:104E6000007181602868816841F4005181601748B1
:104E7000016841F40031016014480830016841F4D0
:104E8000003101602968C1F8248085F81DB02E77B3
:104E90000020C5E62E2E2F447269766572732F535B
:104EA000544D33324C3178785F48414C5F447269DD
:104EB0007665722F5372632F73746D33326C317851
:104EC000785F68616C5F7274632E63000004014058
:104ED0002DE9F04716000C46054606D0012E04D0F9
:104EE00040F2893159A003F065FC287F012807D0E2
:104EF0004FF0010985F81C90022068771EB109E087
:104F00000220BDE8F0876078C10603D500F0EF000D
:104F10000A3060702078012810D002280ED00328B3
:104F20000CD004280AD0052808D0062806D0072867
:104F300004D040F2953145A003F03CFCE078002E0F
:104F40003ED002F0E9F8632804D94FF469713FA01C
:104F500003F030FC607802F0DFF820B1607802F0F6
:104F6000DBF80C2804D940F2A53138A003F022FC6C
:104F7000A07802F0D1F820B1A07802F0CDF81F2877
:104F800004D940F2A63131A003F014FCA078E178F6
:104F900040EA014660782178000240EA4130064349
:104FA0002968CA204862296853204862284602F0CE
:104FB000C7F80024FF274FF00408002837D129E064
:104FC000632804D940F2993120A003F0F3FB607804
:104FD000401E0B2804D940F29A311CA003F0EAFBD2
:104FE000A078401E1E2804D940F29B3117A003F080
:104FF000E1FBE07802F099F80204607802F095F89D
:1050000042EA0022A07802F090F80243207842EAB7
:105010004036C5E71B480640286846602868C168D6
:1050200021F08001C160284600F036F930B12868CF
:10503000476285F81D802C77012062E72868476267
:1050400085F81D902C7700205BE700002E2E2F4462
:105050007269766572732F53544D33324C317878C0
:105060005F48414C5F4472697665722F5372632FBB
:1050700073746D33326C3178785F68616C5F727411
:10508000632E63003FFFFF002DE9F04717000C4639
:10509000054606D0012F04D04FF436716FA003F0FF
:1050A00089FB6068B0F5003F08D0B0F5803F05D0BF
:1050B00020B140F2D92169A003F07CFBA06838B18F
:1050C000B0F5802F04D040F2DA2164A003F072FB27
:1050D000287F012823D04FF0010A85F81CA0022068
:1050E00068772868002680684FEA4060D7B10028BA
:1050F00054DA207802F010F820B1207802F00CF891
:105100000C2804D940F2F92154A003F053FBE078B5
:1051100000284ED040284CD040F2FA2146E0022030
:10512000BDE8F08700280FDA2078401E0B2804D94C
:1051300040F2E52149A003F03DFBE07868B140284A
:105140000BD040F2E62105E0E6702078172804D95C
:1051500040F2EB2141A003F02DFB60783B2804D9FD
:1051600040F2ED213DA003F025FBA0783B2804D9B7
:1051700040F2EE2139A003F01DFB207801F0D5FFAD
:105180000204607801F0D1FF42EA0022A07801F029
:10519000CCFF0243E07842EA004728E0E67020783E
:1051A00001F0BAFF172804D940F2FF212BA003F029
:1051B00001FB607801F0B0FF3B2804D940F20131D7
:1051C00026A003F0F7FAA07801F0A6FF3B2804D947
:1051D00040F2023121A003F0EDFAA078217840EAF4
:1051E00001476078E178000240EA014007432968FE
:1051F000CA204862296853204862284601F0A0FF6F
:105200004FF0FF084FF00409C0B922480740286852
:1052100007602868816821F480218160D4E9011049
:10522000014328688268114381602868C16821F0C1
:105230008001C160284600F02FF838B12968C1F814
:10524000248085F81D902E77012069E72968C1F830
:10525000248085F81DA02E77002061E72E2E2F4494
:105260007269766572732F53544D33324C317878AE
:105270005F48414C5F4472697665722F5372632FA9
:1052800073746D33326C3178785F68616C5F7274FF
:10529000632E63007F7F7F0070B505460068C1689C
:1052A00021F0A001C160FEF7D5FA04464FF47A76EA
:1052B00006E0FEF7CFFA001BB04201D9032070BD13
:1052C0002868C0688006F4D5002070BD70B5040061
:1052D0007ED078492068884207D07749884204D038
:1052E0004FF4A17175A003F065FA60684FF48276FF
:1052F00030B1B04204D040F2431170A003F05AFA2A
:10530000A06850B1B0F5806F07D0B0F5004F04D061
:105310004FF4A27169A003F04DFAE068B0F5006F98
:1053200005D020B140F2451164A003F043FAA06912
:10533000B0F5007F08D038B1B0F5802F04D04FF41D
:10534000A3715EA003F036FAE06990B1082810D08E
:1053500010280ED018280CD020280AD0282808D0D1
:10536000302806D0382804D040F2471153A003F06B
:1053700021FA206A30B1802804D04FF4A4714FA0E4
:1053800003F018FA606A002538B340F24B114BA0C5
:1053900003F010FA606A00B3E06990B1082810D0F9
:1053A00010280ED018280CD020280AD0282808D081
:1053B000302806D0382804D040F25D113FA003F019
:1053C000F9F925616561A56294F85100002800E0B3
:1053D00001E030D034E0012070BD206930B10228F6
:1053E00004D04FF4A77135A003F0E4F9606930B13F
:1053F000012804D040F24F1130A003F0DBF96068BF
:10540000B04216D1E0690028DDD00828DBD0102892
:10541000D9D01828D7D02028D5D02828D3D03028C4
:10542000D1D03828CFD040F2531124A003F0C2F9D4
:10543000C9E7E561C7E784F85050204600F05AF804
:10544000022084F851002068016821F040010160C9
:10545000A088218900F4827001F404410843A189E5
:1054600001F400610843217C01F002010843217D21
:1054700001F001010843218B01F400710843217FF1
:1054800001F03801084394F8201001F0800108432E
:10549000218D01F40051084321680860A0690421AE
:1054A00001EA1040216848606565012084F85100D8
:1054B000002070BD00300140003800402E2E2F44E7
:1054C0007269766572732F53544D33324C3178784C
:1054D0005F48414C5F4472697665722F5372632F47
:1054E00073746D33326C3178785F68616C5F7370A0
:1054F000692E630010B586B0044614216846FAF799
:1055000000FF13492068884220D11248016841F405
:1055100080510160006800F4805005900D48001F24
:10552000016841F0010101600068694600F0010076
:105530000590E020009002200190002002900320BE
:105540000390052004900448FDF792FF06B010BDBB
:105550000030014020380240000002402DE9F84FA1
:1055600004460A9E80681F4692468B4601254FF0EE
:10557000000820B140F27D4172A003F01BF994F8BD
:10558000500001280ED0012084F85000FEF762F987
:10559000814694F85100616801280CD0B1F5827FF2
:1055A00007D102E00220BDE8F88FA16809B90428FC
:1055B00001D00220B6E0BBF1000F27D0BAF1000FF6
:1055C00024D01FB394F85100042802D0052084F899
:1055D000510000206065C4F838A0E787A787C4F8A9
:1055E00030B0E786A78620646064206801684906B9
:1055F00003D4016841F040010160E068B0F5006F3C
:10560000606805D0F0B3012F43D079E0012089E034
:1056100008B1012F34D1206B21680088C860206B4D
:10562000801C2063E08E401EE08629E020688168AF
:1056300089070DD5E18E59B1012D09D1216B09885A
:10564000C160206B801C2063E08E401EE086002538
:1056500020688168C9070BD0E18F49B1C068A16B90
:105660000880A06B801CA063E08F401EE0870125AE
:10567000FEF7F0F8A0EB0900B04201D3701C50D146
:10568000E08E00E005E00028D0D1E08F0028CDD1E9
:105690003CE0206B216800780873206B401C20637D
:1056A000E08E401EE0862BE02068816889070DD5DA
:1056B000E18E59B1012D09D1216B09780173206B5D
:1056C000401C2063E08E401EE08600252068816833
:1056D000C9070BD0E18F49B1C068A16B0870A06BFE
:1056E000401CA063E08F401EE0870125FEF7B2F862
:1056F000A0EB0900B04202D3701C01D011E086B1CA
:10570000E08E0028D0D1E08F0028CDD14A46314626
:10571000204601F0F3FD38B120204FF0010860650C
:1057200008E00320804605E0A06818B92068C16839
:1057300080680090012084F85100002084F8500017
:10574000404630E72E2E2F447269766572732F53D0
:10575000544D33324C3178785F48414C5F44726924
:105760007665722F5372632F73746D33326C317898
:10577000785F68616C5F7370692E630010B5401EBE
:10578000B0F1807F01D3012010BD4FF0E0246061B3
:105790000F21601702F0AEFD0020A06107202061FC
:1057A000002010BD704710F8391F4078084370473B
:1057B00070B5026804461068D168536910F00F0F85
:1057C00052D003F0010501F490762E435FD0C2075A
:1057D00005D0CA0503D5E26B42F00102E26342073D
:1057E00005D5DA0703D0E26B42F00202E2638207DA
:1057F00005D5DA0703D0E26B42F00402E263020748
:1058000007D501F020022A4303D0E26B42F00802E0
:10581000E263E26B002A33D0800604D5880602D505
:10582000204602F0FBF920684069E16BC0F380106C
:10583000090700D428B3204602F0E2F92068416944
:1058400049061AD5416921F040014161606BA0B160
:105850001B494163606BFDF73FFC002810D0606B73
:10586000416BBDE870400847830610D58B060ED506
:105870002046BDE8704002F0D1B92046FFF792FF04
:1058800070BD2046FFF78EFF0020E06370BD030669
:1058900006D50B0604D52046BDE8704002F0E2BAFA
:1058A0004006F3D54806F1D5D168204621F04001E5
:1058B000D160202184F8391000F082F970BD000019
:1058C000F17B000870B5040020D0A069354900289C
:1058D000354A364B20681BD088420AD0904208D007
:1058E000984206D040F2451131A002F063FFA06952
:1058F000C8B1A069B0F5807F15D0B0F5007F12D097
:10590000B0F5407F0FD04FF4A37109E0012070BDC6
:10591000884208D0904206D0984204D04FF4A57136
:1059200023A002F047FFA06838B1B0F5805F04D033
:105930004FF4A6711EA002F03DFFE06938B1B0F54A
:10594000004F04D040F24D1119A002F033FF94F83B
:105950003900002520B984F83850204600F046F878
:10596000242084F839002068C16821F40051C16006
:10597000204602F09FF92068016921F490410161FD
:105980002068416921F02A0141612068C16841F421
:105990000051C160E563202084F8390084F83A00A2
:1059A000002070BD00380140004400400048004025
:1059B0002E2E2F447269766572732F53544D3332F5
:1059C0004C3178785F48414C5F4472697665722F3C
:1059D0005372632F73746D33326C3178785F686102
:1059E0006C5F756172742E6300000000F0B587B0C3
:1059F000044614216846FAF784FC294F21680023E5
:105A0000284A0224032507262748B94220D1111D20
:105A10000F6847F480470F60096801F480410591E1
:105A2000116841F001011160116802AF01F001013C
:105A300005916902CDE9001487E868006946FDF721
:105A400017FD002205212520FEF70AF8252023E076
:105A5000164FB94222D1134908310F6847F4003775
:105A60000F60096801F400310591116841F00101EE
:105A70001160116802AF01F0010105910C21CDE91F
:105A8000001487E868006946FDF7F2FC0022052152
:105A90002620FDF7E5FF2620FDF7B0FF07B0F0BD9B
:105AA000003801401C380240000002400044004021
:105AB00090F83A30202B22D1F9B1F2B190F8383079
:105AC000012B1CD081628285C2850021C163222204
:105AD00080F83A2080F838100168CA6842F4807271
